{
  "abi": [
    {
      "type": "constructor",
      "inputs": [
        {
          "name": "_forwarder",
          "type": "address",
          "internalType": "address"
        },
        {
          "name": "_token",
          "type": "address",
          "internalType": "address"
        }
      ],
      "stateMutability": "nonpayable"
    },
    {
      "type": "function",
      "name": "CLOCK_MODE",
      "inputs": [],
      "outputs": [
        {
          "name": "",
          "type": "string",
          "internalType": "string"
        }
      ],
      "stateMutability": "pure"
    },
    {
      "type": "function",
      "name": "DELEGATION_TYPEHASH",
      "inputs": [],
      "outputs": [
        {
          "name": "",
          "type": "bytes32",
          "internalType": "bytes32"
        }
      ],
      "stateMutability": "view"
    },
    {
      "type": "function",
      "name": "DOMAIN_TYPEHASH",
      "inputs": [],
      "outputs": [
        {
          "name": "",
          "type": "bytes32",
          "internalType": "bytes32"
        }
      ],
      "stateMutability": "view"
    },
    {
      "type": "function",
      "name": "approve",
      "inputs": [
        {
          "name": "_approved",
          "type": "address",
          "internalType": "address"
        },
        {
          "name": "_tokenId",
          "type": "uint256",
          "internalType": "uint256"
        }
      ],
      "outputs": [],
      "stateMutability": "nonpayable"
    },
    {
      "type": "function",
      "name": "artProxy",
      "inputs": [],
      "outputs": [
        {
          "name": "",
          "type": "address",
          "internalType": "address"
        }
      ],
      "stateMutability": "view"
    },
    {
      "type": "function",
      "name": "balanceOf",
      "inputs": [
        {
          "name": "_owner",
          "type": "address",
          "internalType": "address"
        }
      ],
      "outputs": [
        {
          "name": "",
          "type": "uint256",
          "internalType": "uint256"
        }
      ],
      "stateMutability": "view"
    },
    {
      "type": "function",
      "name": "balanceOfNFT",
      "inputs": [
        {
          "name": "_tokenId",
          "type": "uint256",
          "internalType": "uint256"
        }
      ],
      "outputs": [
        {
          "name": "",
          "type": "uint256",
          "internalType": "uint256"
        }
      ],
      "stateMutability": "view"
    },
    {
      "type": "function",
      "name": "balanceOfNFTAt",
      "inputs": [
        {
          "name": "_tokenId",
          "type": "uint256",
          "internalType": "uint256"
        },
        {
          "name": "_t",
          "type": "uint256",
          "internalType": "uint256"
        }
      ],
      "outputs": [
        {
          "name": "",
          "type": "uint256",
          "internalType": "uint256"
        }
      ],
      "stateMutability": "view"
    },
    {
      "type": "function",
      "name": "canSplit",
      "inputs": [
        {
          "name": "",
          "type": "address",
          "internalType": "address"
        }
      ],
      "outputs": [
        {
          "name": "",
          "type": "bool",
          "internalType": "bool"
        }
      ],
      "stateMutability": "view"
    },
    {
      "type": "function",
      "name": "checkpoint",
      "inputs": [],
      "outputs": [],
      "stateMutability": "nonpayable"
    },
    {
      "type": "function",
      "name": "checkpoints",
      "inputs": [
        {
          "name": "_tokenId",
          "type": "uint256",
          "internalType": "uint256"
        },
        {
          "name": "_index",
          "type": "uint48",
          "internalType": "uint48"
        }
      ],
      "outputs": [
        {
          "name": "",
          "type": "tuple",
          "internalType": "struct IVotingEscrow.Checkpoint",
          "components": [
            {
              "name": "fromTimestamp",
              "type": "uint256",
              "internalType": "uint256"
            },
            {
              "name": "owner",
              "type": "address",
              "internalType": "address"
            },
            {
              "name": "delegatedBalance",
              "type": "uint256",
              "internalType": "uint256"
            },
            {
              "name": "delegatee",
              "type": "uint256",
              "internalType": "uint256"
            }
          ]
        }
      ],
      "stateMutability": "view"
    },
    {
      "type": "function",
      "name": "clock",
      "inputs": [],
      "outputs": [
        {
          "name": "",
          "type": "uint48",
          "internalType": "uint48"
        }
      ],
      "stateMutability": "view"
    },
    {
      "type": "function",
      "name": "createLock",
      "inputs": [
        {
          "name": "_value",
          "type": "uint256",
          "internalType": "uint256"
        },
        {
          "name": "_lockDuration",
          "type": "uint256",
          "internalType": "uint256"
        }
      ],
      "outputs": [
        {
          "name": "",
          "type": "uint256",
          "internalType": "uint256"
        }
      ],
      "stateMutability": "nonpayable"
    },
    {
      "type": "function",
      "name": "createLockFor",
      "inputs": [
        {
          "name": "_value",
          "type": "uint256",
          "internalType": "uint256"
        },
        {
          "name": "_lockDuration",
          "type": "uint256",
          "internalType": "uint256"
        },
        {
          "name": "_to",
          "type": "address",
          "internalType": "address"
        }
      ],
      "outputs": [
        {
          "name": "",
          "type": "uint256",
          "internalType": "uint256"
        }
      ],
      "stateMutability": "nonpayable"
    },
    {
      "type": "function",
      "name": "decimals",
      "inputs": [],
      "outputs": [
        {
          "name": "",
          "type": "uint8",
          "internalType": "uint8"
        }
      ],
      "stateMutability": "view"
    },
    {
      "type": "function",
      "name": "delegate",
      "inputs": [
        {
          "name": "delegator",
          "type": "uint256",
          "internalType": "uint256"
        },
        {
          "name": "delegatee",
          "type": "uint256",
          "internalType": "uint256"
        }
      ],
      "outputs": [],
      "stateMutability": "nonpayable"
    },
    {
      "type": "function",
      "name": "delegateBySig",
      "inputs": [
        {
          "name": "delegator",
          "type": "uint256",
          "internalType": "uint256"
        },
        {
          "name": "delegatee",
          "type": "uint256",
          "internalType": "uint256"
        },
        {
          "name": "nonce",
          "type": "uint256",
          "internalType": "uint256"
        },
        {
          "name": "expiry",
          "type": "uint256",
          "internalType": "uint256"
        },
        {
          "name": "v",
          "type": "uint8",
          "internalType": "uint8"
        },
        {
          "name": "r",
          "type": "bytes32",
          "internalType": "bytes32"
        },
        {
          "name": "s",
          "type": "bytes32",
          "internalType": "bytes32"
        }
      ],
      "outputs": [],
      "stateMutability": "nonpayable"
    },
    {
      "type": "function",
      "name": "delegates",
      "inputs": [
        {
          "name": "delegator",
          "type": "uint256",
          "internalType": "uint256"
        }
      ],
      "outputs": [
        {
          "name": "",
          "type": "uint256",
          "internalType": "uint256"
        }
      ],
      "stateMutability": "view"
    },
    {
      "type": "function",
      "name": "depositFor",
      "inputs": [
        {
          "name": "_tokenId",
          "type": "uint256",
          "internalType": "uint256"
        },
        {
          "name": "_value",
          "type": "uint256",
          "internalType": "uint256"
        }
      ],
      "outputs": [],
      "stateMutability": "nonpayable"
    },
    {
      "type": "function",
      "name": "distributor",
      "inputs": [],
      "outputs": [
        {
          "name": "",
          "type": "address",
          "internalType": "address"
        }
      ],
      "stateMutability": "view"
    },
    {
      "type": "function",
      "name": "epoch",
      "inputs": [],
      "outputs": [
        {
          "name": "",
          "type": "uint256",
          "internalType": "uint256"
        }
      ],
      "stateMutability": "view"
    },
    {
      "type": "function",
      "name": "escrowType",
      "inputs": [
        {
          "name": "",
          "type": "uint256",
          "internalType": "uint256"
        }
      ],
      "outputs": [
        {
          "name": "",
          "type": "uint8",
          "internalType": "enum IVotingEscrow.EscrowType"
        }
      ],
      "stateMutability": "view"
    },
    {
      "type": "function",
      "name": "forwarder",
      "inputs": [],
      "outputs": [
        {
          "name": "",
          "type": "address",
          "internalType": "address"
        }
      ],
      "stateMutability": "view"
    },
    {
      "type": "function",
      "name": "getApproved",
      "inputs": [
        {
          "name": "_tokenId",
          "type": "uint256",
          "internalType": "uint256"
        }
      ],
      "outputs": [
        {
          "name": "",
          "type": "address",
          "internalType": "address"
        }
      ],
      "stateMutability": "view"
    },
    {
      "type": "function",
      "name": "getPastTotalSupply",
      "inputs": [
        {
          "name": "_timestamp",
          "type": "uint256",
          "internalType": "uint256"
        }
      ],
      "outputs": [
        {
          "name": "",
          "type": "uint256",
          "internalType": "uint256"
        }
      ],
      "stateMutability": "view"
    },
    {
      "type": "function",
      "name": "getPastVotes",
      "inputs": [
        {
          "name": "_account",
          "type": "address",
          "internalType": "address"
        },
        {
          "name": "_tokenId",
          "type": "uint256",
          "internalType": "uint256"
        },
        {
          "name": "_timestamp",
          "type": "uint256",
          "internalType": "uint256"
        }
      ],
      "outputs": [
        {
          "name": "",
          "type": "uint256",
          "internalType": "uint256"
        }
      ],
      "stateMutability": "view"
    },
    {
      "type": "function",
      "name": "increaseAmount",
      "inputs": [
        {
          "name": "_tokenId",
          "type": "uint256",
          "internalType": "uint256"
        },
        {
          "name": "_value",
          "type": "uint256",
          "internalType": "uint256"
        }
      ],
      "outputs": [],
      "stateMutability": "nonpayable"
    },
    {
      "type": "function",
      "name": "increaseUnlockTime",
      "inputs": [
        {
          "name": "_tokenId",
          "type": "uint256",
          "internalType": "uint256"
        },
        {
          "name": "_lockDuration",
          "type": "uint256",
          "internalType": "uint256"
        }
      ],
      "outputs": [],
      "stateMutability": "nonpayable"
    },
    {
      "type": "function",
      "name": "isApprovedForAll",
      "inputs": [
        {
          "name": "_owner",
          "type": "address",
          "internalType": "address"
        },
        {
          "name": "_operator",
          "type": "address",
          "internalType": "address"
        }
      ],
      "outputs": [
        {
          "name": "",
          "type": "bool",
          "internalType": "bool"
        }
      ],
      "stateMutability": "view"
    },
    {
      "type": "function",
      "name": "isApprovedOrOwner",
      "inputs": [
        {
          "name": "_spender",
          "type": "address",
          "internalType": "address"
        },
        {
          "name": "_tokenId",
          "type": "uint256",
          "internalType": "uint256"
        }
      ],
      "outputs": [
        {
          "name": "",
          "type": "bool",
          "internalType": "bool"
        }
      ],
      "stateMutability": "view"
    },
    {
      "type": "function",
      "name": "isTrustedForwarder",
      "inputs": [
        {
          "name": "forwarder",
          "type": "address",
          "internalType": "address"
        }
      ],
      "outputs": [
        {
          "name": "",
          "type": "bool",
          "internalType": "bool"
        }
      ],
      "stateMutability": "view"
    },
    {
      "type": "function",
      "name": "lockPermanent",
      "inputs": [
        {
          "name": "_tokenId",
          "type": "uint256",
          "internalType": "uint256"
        }
      ],
      "outputs": [],
      "stateMutability": "nonpayable"
    },
    {
      "type": "function",
      "name": "locked",
      "inputs": [
        {
          "name": "_tokenId",
          "type": "uint256",
          "internalType": "uint256"
        }
      ],
      "outputs": [
        {
          "name": "",
          "type": "tuple",
          "internalType": "struct IVotingEscrow.LockedBalance",
          "components": [
            {
              "name": "amount",
              "type": "int128",
              "internalType": "int128"
            },
            {
              "name": "end",
              "type": "uint256",
              "internalType": "uint256"
            },
            {
              "name": "isPermanent",
              "type": "bool",
              "internalType": "bool"
            }
          ]
        }
      ],
      "stateMutability": "view"
    },
    {
      "type": "function",
      "name": "merge",
      "inputs": [
        {
          "name": "_from",
          "type": "uint256",
          "internalType": "uint256"
        },
        {
          "name": "_to",
          "type": "uint256",
          "internalType": "uint256"
        }
      ],
      "outputs": [],
      "stateMutability": "nonpayable"
    },
    {
      "type": "function",
      "name": "name",
      "inputs": [],
      "outputs": [
        {
          "name": "",
          "type": "string",
          "internalType": "string"
        }
      ],
      "stateMutability": "view"
    },
    {
      "type": "function",
      "name": "nonces",
      "inputs": [
        {
          "name": "",
          "type": "address",
          "internalType": "address"
        }
      ],
      "outputs": [
        {
          "name": "",
          "type": "uint256",
          "internalType": "uint256"
        }
      ],
      "stateMutability": "view"
    },
    {
      "type": "function",
      "name": "numCheckpoints",
      "inputs": [
        {
          "name": "",
          "type": "uint256",
          "internalType": "uint256"
        }
      ],
      "outputs": [
        {
          "name": "",
          "type": "uint48",
          "internalType": "uint48"
        }
      ],
      "stateMutability": "view"
    },
    {
      "type": "function",
      "name": "ownerOf",
      "inputs": [
        {
          "name": "_tokenId",
          "type": "uint256",
          "internalType": "uint256"
        }
      ],
      "outputs": [
        {
          "name": "",
          "type": "address",
          "internalType": "address"
        }
      ],
      "stateMutability": "view"
    },
    {
      "type": "function",
      "name": "ownerToNFTokenIdList",
      "inputs": [
        {
          "name": "",
          "type": "address",
          "internalType": "address"
        },
        {
          "name": "",
          "type": "uint256",
          "internalType": "uint256"
        }
      ],
      "outputs": [
        {
          "name": "",
          "type": "uint256",
          "internalType": "uint256"
        }
      ],
      "stateMutability": "view"
    },
    {
      "type": "function",
      "name": "permanentLockBalance",
      "inputs": [],
      "outputs": [
        {
          "name": "",
          "type": "uint256",
          "internalType": "uint256"
        }
      ],
      "stateMutability": "view"
    },
    {
      "type": "function",
      "name": "pointHistory",
      "inputs": [
        {
          "name": "_loc",
          "type": "uint256",
          "internalType": "uint256"
        }
      ],
      "outputs": [
        {
          "name": "",
          "type": "tuple",
          "internalType": "struct IVotingEscrow.GlobalPoint",
          "components": [
            {
              "name": "bias",
              "type": "int128",
              "internalType": "int128"
            },
            {
              "name": "slope",
              "type": "int128",
              "internalType": "int128"
            },
            {
              "name": "ts",
              "type": "uint256",
              "internalType": "uint256"
            },
            {
              "name": "blk",
              "type": "uint256",
              "internalType": "uint256"
            },
            {
              "name": "permanentLockBalance",
              "type": "uint256",
              "internalType": "uint256"
            }
          ]
        }
      ],
      "stateMutability": "view"
    },
    {
      "type": "function",
      "name": "safeTransferFrom",
      "inputs": [
        {
          "name": "_from",
          "type": "address",
          "internalType": "address"
        },
        {
          "name": "_to",
          "type": "address",
          "internalType": "address"
        },
        {
          "name": "_tokenId",
          "type": "uint256",
          "internalType": "uint256"
        }
      ],
      "outputs": [],
      "stateMutability": "nonpayable"
    },
    {
      "type": "function",
      "name": "safeTransferFrom",
      "inputs": [
        {
          "name": "_from",
          "type": "address",
          "internalType": "address"
        },
        {
          "name": "_to",
          "type": "address",
          "internalType": "address"
        },
        {
          "name": "_tokenId",
          "type": "uint256",
          "internalType": "uint256"
        },
        {
          "name": "_data",
          "type": "bytes",
          "internalType": "bytes"
        }
      ],
      "outputs": [],
      "stateMutability": "nonpayable"
    },
    {
      "type": "function",
      "name": "setApprovalForAll",
      "inputs": [
        {
          "name": "_operator",
          "type": "address",
          "internalType": "address"
        },
        {
          "name": "_approved",
          "type": "bool",
          "internalType": "bool"
        }
      ],
      "outputs": [],
      "stateMutability": "nonpayable"
    },
    {
      "type": "function",
      "name": "setArtProxy",
      "inputs": [
        {
          "name": "_proxy",
          "type": "address",
          "internalType": "address"
        }
      ],
      "outputs": [],
      "stateMutability": "nonpayable"
    },
    {
      "type": "function",
      "name": "setTeam",
      "inputs": [
        {
          "name": "_team",
          "type": "address",
          "internalType": "address"
        }
      ],
      "outputs": [],
      "stateMutability": "nonpayable"
    },
    {
      "type": "function",
      "name": "setVoterAndDistributor",
      "inputs": [
        {
          "name": "_voter",
          "type": "address",
          "internalType": "address"
        },
        {
          "name": "_distributor",
          "type": "address",
          "internalType": "address"
        }
      ],
      "outputs": [],
      "stateMutability": "nonpayable"
    },
    {
      "type": "function",
      "name": "slopeChanges",
      "inputs": [
        {
          "name": "",
          "type": "uint256",
          "internalType": "uint256"
        }
      ],
      "outputs": [
        {
          "name": "",
          "type": "int128",
          "internalType": "int128"
        }
      ],
      "stateMutability": "view"
    },
    {
      "type": "function",
      "name": "split",
      "inputs": [
        {
          "name": "_from",
          "type": "uint256",
          "internalType": "uint256"
        },
        {
          "name": "_amount",
          "type": "uint256",
          "internalType": "uint256"
        }
      ],
      "outputs": [
        {
          "name": "_tokenId1",
          "type": "uint256",
          "internalType": "uint256"
        },
        {
          "name": "_tokenId2",
          "type": "uint256",
          "internalType": "uint256"
        }
      ],
      "stateMutability": "nonpayable"
    },
    {
      "type": "function",
      "name": "supply",
      "inputs": [],
      "outputs": [
        {
          "name": "",
          "type": "uint256",
          "internalType": "uint256"
        }
      ],
      "stateMutability": "view"
    },
    {
      "type": "function",
      "name": "supportsInterface",
      "inputs": [
        {
          "name": "_interfaceID",
          "type": "bytes4",
          "internalType": "bytes4"
        }
      ],
      "outputs": [
        {
          "name": "",
          "type": "bool",
          "internalType": "bool"
        }
      ],
      "stateMutability": "view"
    },
    {
      "type": "function",
      "name": "symbol",
      "inputs": [],
      "outputs": [
        {
          "name": "",
          "type": "string",
          "internalType": "string"
        }
      ],
      "stateMutability": "view"
    },
    {
      "type": "function",
      "name": "team",
      "inputs": [],
      "outputs": [
        {
          "name": "",
          "type": "address",
          "internalType": "address"
        }
      ],
      "stateMutability": "view"
    },
    {
      "type": "function",
      "name": "toggleSplit",
      "inputs": [
        {
          "name": "_account",
          "type": "address",
          "internalType": "address"
        },
        {
          "name": "_bool",
          "type": "bool",
          "internalType": "bool"
        }
      ],
      "outputs": [],
      "stateMutability": "nonpayable"
    },
    {
      "type": "function",
      "name": "token",
      "inputs": [],
      "outputs": [
        {
          "name": "",
          "type": "address",
          "internalType": "address"
        }
      ],
      "stateMutability": "view"
    },
    {
      "type": "function",
      "name": "tokenId",
      "inputs": [],
      "outputs": [
        {
          "name": "",
          "type": "uint256",
          "internalType": "uint256"
        }
      ],
      "stateMutability": "view"
    },
    {
      "type": "function",
      "name": "tokenURI",
      "inputs": [
        {
          "name": "_tokenId",
          "type": "uint256",
          "internalType": "uint256"
        }
      ],
      "outputs": [
        {
          "name": "",
          "type": "string",
          "internalType": "string"
        }
      ],
      "stateMutability": "view"
    },
    {
      "type": "function",
      "name": "totalSupply",
      "inputs": [],
      "outputs": [
        {
          "name": "",
          "type": "uint256",
          "internalType": "uint256"
        }
      ],
      "stateMutability": "view"
    },
    {
      "type": "function",
      "name": "totalSupplyAt",
      "inputs": [
        {
          "name": "_timestamp",
          "type": "uint256",
          "internalType": "uint256"
        }
      ],
      "outputs": [
        {
          "name": "",
          "type": "uint256",
          "internalType": "uint256"
        }
      ],
      "stateMutability": "view"
    },
    {
      "type": "function",
      "name": "transferFrom",
      "inputs": [
        {
          "name": "_from",
          "type": "address",
          "internalType": "address"
        },
        {
          "name": "_to",
          "type": "address",
          "internalType": "address"
        },
        {
          "name": "_tokenId",
          "type": "uint256",
          "internalType": "uint256"
        }
      ],
      "outputs": [],
      "stateMutability": "nonpayable"
    },
    {
      "type": "function",
      "name": "unlockPermanent",
      "inputs": [
        {
          "name": "_tokenId",
          "type": "uint256",
          "internalType": "uint256"
        }
      ],
      "outputs": [],
      "stateMutability": "nonpayable"
    },
    {
      "type": "function",
      "name": "userPointEpoch",
      "inputs": [
        {
          "name": "",
          "type": "uint256",
          "internalType": "uint256"
        }
      ],
      "outputs": [
        {
          "name": "",
          "type": "uint256",
          "internalType": "uint256"
        }
      ],
      "stateMutability": "view"
    },
    {
      "type": "function",
      "name": "userPointHistory",
      "inputs": [
        {
          "name": "_tokenId",
          "type": "uint256",
          "internalType": "uint256"
        },
        {
          "name": "_loc",
          "type": "uint256",
          "internalType": "uint256"
        }
      ],
      "outputs": [
        {
          "name": "",
          "type": "tuple",
          "internalType": "struct IVotingEscrow.UserPoint",
          "components": [
            {
              "name": "bias",
              "type": "int128",
              "internalType": "int128"
            },
            {
              "name": "slope",
              "type": "int128",
              "internalType": "int128"
            },
            {
              "name": "ts",
              "type": "uint256",
              "internalType": "uint256"
            },
            {
              "name": "blk",
              "type": "uint256",
              "internalType": "uint256"
            },
            {
              "name": "permanent",
              "type": "uint256",
              "internalType": "uint256"
            }
          ]
        }
      ],
      "stateMutability": "view"
    },
    {
      "type": "function",
      "name": "version",
      "inputs": [],
      "outputs": [
        {
          "name": "",
          "type": "string",
          "internalType": "string"
        }
      ],
      "stateMutability": "view"
    },
    {
      "type": "function",
      "name": "voted",
      "inputs": [
        {
          "name": "",
          "type": "uint256",
          "internalType": "uint256"
        }
      ],
      "outputs": [
        {
          "name": "",
          "type": "bool",
          "internalType": "bool"
        }
      ],
      "stateMutability": "view"
    },
    {
      "type": "function",
      "name": "voter",
      "inputs": [],
      "outputs": [
        {
          "name": "",
          "type": "address",
          "internalType": "address"
        }
      ],
      "stateMutability": "view"
    },
    {
      "type": "function",
      "name": "voting",
      "inputs": [
        {
          "name": "_tokenId",
          "type": "uint256",
          "internalType": "uint256"
        },
        {
          "name": "_voted",
          "type": "bool",
          "internalType": "bool"
        }
      ],
      "outputs": [],
      "stateMutability": "nonpayable"
    },
    {
      "type": "function",
      "name": "withdraw",
      "inputs": [
        {
          "name": "_tokenId",
          "type": "uint256",
          "internalType": "uint256"
        }
      ],
      "outputs": [],
      "stateMutability": "nonpayable"
    },
    {
      "type": "event",
      "name": "Approval",
      "inputs": [
        {
          "name": "owner",
          "type": "address",
          "indexed": true,
          "internalType": "address"
        },
        {
          "name": "approved",
          "type": "address",
          "indexed": true,
          "internalType": "address"
        },
        {
          "name": "tokenId",
          "type": "uint256",
          "indexed": true,
          "internalType": "uint256"
        }
      ],
      "anonymous": false
    },
    {
      "type": "event",
      "name": "ApprovalForAll",
      "inputs": [
        {
          "name": "owner",
          "type": "address",
          "indexed": true,
          "internalType": "address"
        },
        {
          "name": "operator",
          "type": "address",
          "indexed": true,
          "internalType": "address"
        },
        {
          "name": "approved",
          "type": "bool",
          "indexed": false,
          "internalType": "bool"
        }
      ],
      "anonymous": false
    },
    {
      "type": "event",
      "name": "BatchMetadataUpdate",
      "inputs": [
        {
          "name": "_fromTokenId",
          "type": "uint256",
          "indexed": false,
          "internalType": "uint256"
        },
        {
          "name": "_toTokenId",
          "type": "uint256",
          "indexed": false,
          "internalType": "uint256"
        }
      ],
      "anonymous": false
    },
    {
      "type": "event",
      "name": "DelegateChanged",
      "inputs": [
        {
          "name": "delegator",
          "type": "address",
          "indexed": true,
          "internalType": "address"
        },
        {
          "name": "fromDelegate",
          "type": "uint256",
          "indexed": true,
          "internalType": "uint256"
        },
        {
          "name": "toDelegate",
          "type": "uint256",
          "indexed": true,
          "internalType": "uint256"
        }
      ],
      "anonymous": false
    },
    {
      "type": "event",
      "name": "DelegateVotesChanged",
      "inputs": [
        {
          "name": "delegate",
          "type": "address",
          "indexed": true,
          "internalType": "address"
        },
        {
          "name": "previousBalance",
          "type": "uint256",
          "indexed": false,
          "internalType": "uint256"
        },
        {
          "name": "newBalance",
          "type": "uint256",
          "indexed": false,
          "internalType": "uint256"
        }
      ],
      "anonymous": false
    },
    {
      "type": "event",
      "name": "Deposit",
      "inputs": [
        {
          "name": "provider",
          "type": "address",
          "indexed": true,
          "internalType": "address"
        },
        {
          "name": "tokenId",
          "type": "uint256",
          "indexed": true,
          "internalType": "uint256"
        },
        {
          "name": "depositType",
          "type": "uint8",
          "indexed": true,
          "internalType": "enum IVotingEscrow.DepositType"
        },
        {
          "name": "value",
          "type": "uint256",
          "indexed": false,
          "internalType": "uint256"
        },
        {
          "name": "locktime",
          "type": "uint256",
          "indexed": false,
          "internalType": "uint256"
        },
        {
          "name": "ts",
          "type": "uint256",
          "indexed": false,
          "internalType": "uint256"
        }
      ],
      "anonymous": false
    },
    {
      "type": "event",
      "name": "LockPermanent",
      "inputs": [
        {
          "name": "_owner",
          "type": "address",
          "indexed": true,
          "internalType": "address"
        },
        {
          "name": "_tokenId",
          "type": "uint256",
          "indexed": true,
          "internalType": "uint256"
        },
        {
          "name": "amount",
          "type": "uint256",
          "indexed": false,
          "internalType": "uint256"
        },
        {
          "name": "_ts",
          "type": "uint256",
          "indexed": false,
          "internalType": "uint256"
        }
      ],
      "anonymous": false
    },
    {
      "type": "event",
      "name": "Merge",
      "inputs": [
        {
          "name": "_sender",
          "type": "address",
          "indexed": true,
          "internalType": "address"
        },
        {
          "name": "_from",
          "type": "uint256",
          "indexed": true,
          "internalType": "uint256"
        },
        {
          "name": "_to",
          "type": "uint256",
          "indexed": true,
          "internalType": "uint256"
        },
        {
          "name": "_amountFrom",
          "type": "uint256",
          "indexed": false,
          "internalType": "uint256"
        },
        {
          "name": "_amountTo",
          "type": "uint256",
          "indexed": false,
          "internalType": "uint256"
        },
        {
          "name": "_amountFinal",
          "type": "uint256",
          "indexed": false,
          "internalType": "uint256"
        },
        {
          "name": "_locktime",
          "type": "uint256",
          "indexed": false,
          "internalType": "uint256"
        },
        {
          "name": "_ts",
          "type": "uint256",
          "indexed": false,
          "internalType": "uint256"
        }
      ],
      "anonymous": false
    },
    {
      "type": "event",
      "name": "MetadataUpdate",
      "inputs": [
        {
          "name": "_tokenId",
          "type": "uint256",
          "indexed": false,
          "internalType": "uint256"
        }
      ],
      "anonymous": false
    },
    {
      "type": "event",
      "name": "Split",
      "inputs": [
        {
          "name": "_from",
          "type": "uint256",
          "indexed": true,
          "internalType": "uint256"
        },
        {
          "name": "_tokenId1",
          "type": "uint256",
          "indexed": true,
          "internalType": "uint256"
        },
        {
          "name": "_tokenId2",
          "type": "uint256",
          "indexed": true,
          "internalType": "uint256"
        },
        {
          "name": "_sender",
          "type": "address",
          "indexed": false,
          "internalType": "address"
        },
        {
          "name": "_splitAmount1",
          "type": "uint256",
          "indexed": false,
          "internalType": "uint256"
        },
        {
          "name": "_splitAmount2",
          "type": "uint256",
          "indexed": false,
          "internalType": "uint256"
        },
        {
          "name": "_locktime",
          "type": "uint256",
          "indexed": false,
          "internalType": "uint256"
        },
        {
          "name": "_ts",
          "type": "uint256",
          "indexed": false,
          "internalType": "uint256"
        }
      ],
      "anonymous": false
    },
    {
      "type": "event",
      "name": "Supply",
      "inputs": [
        {
          "name": "prevSupply",
          "type": "uint256",
          "indexed": false,
          "internalType": "uint256"
        },
        {
          "name": "supply",
          "type": "uint256",
          "indexed": false,
          "internalType": "uint256"
        }
      ],
      "anonymous": false
    },
    {
      "type": "event",
      "name": "Transfer",
      "inputs": [
        {
          "name": "from",
          "type": "address",
          "indexed": true,
          "internalType": "address"
        },
        {
          "name": "to",
          "type": "address",
          "indexed": true,
          "internalType": "address"
        },
        {
          "name": "tokenId",
          "type": "uint256",
          "indexed": true,
          "internalType": "uint256"
        }
      ],
      "anonymous": false
    },
    {
      "type": "event",
      "name": "UnlockPermanent",
      "inputs": [
        {
          "name": "_owner",
          "type": "address",
          "indexed": true,
          "internalType": "address"
        },
        {
          "name": "_tokenId",
          "type": "uint256",
          "indexed": true,
          "internalType": "uint256"
        },
        {
          "name": "amount",
          "type": "uint256",
          "indexed": false,
          "internalType": "uint256"
        },
        {
          "name": "_ts",
          "type": "uint256",
          "indexed": false,
          "internalType": "uint256"
        }
      ],
      "anonymous": false
    },
    {
      "type": "event",
      "name": "Withdraw",
      "inputs": [
        {
          "name": "provider",
          "type": "address",
          "indexed": true,
          "internalType": "address"
        },
        {
          "name": "tokenId",
          "type": "uint256",
          "indexed": true,
          "internalType": "uint256"
        },
        {
          "name": "value",
          "type": "uint256",
          "indexed": false,
          "internalType": "uint256"
        },
        {
          "name": "ts",
          "type": "uint256",
          "indexed": false,
          "internalType": "uint256"
        }
      ],
      "anonymous": false
    },
    {
      "type": "error",
      "name": "AlreadyVoted",
      "inputs": []
    },
    {
      "type": "error",
      "name": "AmountTooBig",
      "inputs": []
    },
    {
      "type": "error",
      "name": "ERC721ReceiverRejectedTokens",
      "inputs": []
    },
    {
      "type": "error",
      "name": "ERC721TransferToNonERC721ReceiverImplementer",
      "inputs": []
    },
    {
      "type": "error",
      "name": "InvalidNonce",
      "inputs": []
    },
    {
      "type": "error",
      "name": "InvalidSignature",
      "inputs": []
    },
    {
      "type": "error",
      "name": "InvalidSignatureS",
      "inputs": []
    },
    {
      "type": "error",
      "name": "LockDurationNotInFuture",
      "inputs": []
    },
    {
      "type": "error",
      "name": "LockDurationTooLong",
      "inputs": []
    },
    {
      "type": "error",
      "name": "LockExpired",
      "inputs": []
    },
    {
      "type": "error",
      "name": "LockNotExpired",
      "inputs": []
    },
    {
      "type": "error",
      "name": "NoLockFound",
      "inputs": []
    },
    {
      "type": "error",
      "name": "NonExistentToken",
      "inputs": []
    },
    {
      "type": "error",
      "name": "NotApprovedOrOwner",
      "inputs": []
    },
    {
      "type": "error",
      "name": "NotDistributor",
      "inputs": []
    },
    {
      "type": "error",
      "name": "NotEmergencyCouncilOrGovernor",
      "inputs": []
    },
    {
      "type": "error",
      "name": "NotGovernor",
      "inputs": []
    },
    {
      "type": "error",
      "name": "NotLockedNFT",
      "inputs": []
    },
    {
      "type": "error",
      "name": "NotNormalNFT",
      "inputs": []
    },
    {
      "type": "error",
      "name": "NotOwner",
      "inputs": []
    },
    {
      "type": "error",
      "name": "NotPermanentLock",
      "inputs": []
    },
    {
      "type": "error",
      "name": "NotTeam",
      "inputs": []
    },
    {
      "type": "error",
      "name": "NotVoter",
      "inputs": []
    },
    {
      "type": "error",
      "name": "OwnershipChange",
      "inputs": []
    },
    {
      "type": "error",
      "name": "PermanentLock",
      "inputs": []
    },
    {
      "type": "error",
      "name": "SafeCastOverflow",
      "inputs": []
    },
    {
      "type": "error",
      "name": "SafeCastUnderflow",
      "inputs": []
    },
    {
      "type": "error",
      "name": "SameAddress",
      "inputs": []
    },
    {
      "type": "error",
      "name": "SameNFT",
      "inputs": []
    },
    {
      "type": "error",
      "name": "SameState",
      "inputs": []
    },
    {
      "type": "error",
      "name": "SignatureExpired",
      "inputs": []
    },
    {
      "type": "error",
      "name": "SplitNoOwner",
      "inputs": []
    },
    {
      "type": "error",
      "name": "SplitNotAllowed",
      "inputs": []
    },
    {
      "type": "error",
      "name": "TooManyTokenIDs",
      "inputs": []
    },
    {
      "type": "error",
      "name": "ZeroAddress",
      "inputs": []
    },
    {
      "type": "error",
      "name": "ZeroAmount",
      "inputs": []
    },
    {
      "type": "error",
      "name": "ZeroBalance",
      "inputs": []
    }
  ],
  "bytecode": {
    "object": "0x60e06040523480156200001157600080fd5b5060405162004e0e38038062004e0e833981016040819052620000349162000299565b6001600160a01b038083166080819052600160005560a052811660c0526200005b62000219565b600380546001600160a01b0319166001600160a01b03929092169190911790556200008562000219565b600280546001600160a01b0319166001600160a01b0392909216919091179055437f05b8ccbb9d4d8fb16ea74ce3c29a41f1b461fbdaff4714a0d9a8eb05499746be55427f05b8ccbb9d4d8fb16ea74ce3c29a41f1b461fbdaff4714a0d9a8eb05499746bd5560066020527f477a984de5936bcb02475f64e0ea676103106ac0785c67bf7e9e846450b51ef6805460ff1990811660019081179092557fd544553a2e70858ffdf1e1169f6f124859d29ddf2686bcabf4e6f71bc630442280548216831790557fcc41b8fe3dd37df8e4a56c49f4e83a8fb6899f1fe8f1ddc40678281e8ec6221280548216831790557fb36a33d86f1fff914d4fda13267a0db975e3da4eca355a41c694440a4b38a6e3805482168317905563da287a1d60e01b60009081527f340064a3e6d3079fa141d778c6527db724b180efb190cdf165ccf1bf228fc8a3805490921690921790556007546040519091309160008051602062004dee833981519152908290a4600754604051600090309060008051602062004dee833981519152908390a4505062000356565b6000368160146080519091506001600160a01b0316331480156200023d5750808210155b156200027457600036620002528385620002d1565b6200025f928290620002f9565b6200026a9162000325565b60601c9250505090565b339250505090565b80516001600160a01b03811681146200029457600080fd5b919050565b60008060408385031215620002ad57600080fd5b620002b8836200027c565b9150620002c8602084016200027c565b90509250929050565b81810381811115620002f357634e487b7160e01b600052601160045260246000fd5b92915050565b600080858511156200030a57600080fd5b838611156200031857600080fd5b5050820193919092039150565b6001600160601b031981358181169160148510156200034e5780818660140360031b1b83161692505b505092915050565b60805160a05160c051614a536200039b60003960008181610b8e015281816110560152613a5f01526000610b6701526000818161073b01526129c20152614a536000f3fe608060405234801561001057600080fd5b50600436106103fc5760003560e01c80637ecebe0011610215578063b88d4fde11610125578063e75b1c2e116100b8578063ec32e6df11610087578063ec32e6df14610aca578063f04cb3a814610add578063f52a36f714610b2c578063f645d4f914610b62578063fc0c546a14610b8957600080fd5b8063e75b1c2e14610a41578063e7a324dc14610a54578063e7e242d414610a7b578063e985e9c514610a8e57600080fd5b8063d1c2babb116100f4578063d1c2babb146109e8578063d9a34952146109fb578063e0514aba14610a0e578063e58f594714610a2157600080fd5b8063b88d4fde146109a7578063bfe10928146109ba578063c2c4c5c1146109cd578063c87b56dd146109d557600080fd5b806391ddadf4116101a8578063a22cb46511610177578063a22cb465146108c6578063b1548afc146108d9578063b2383e55146108f9578063b45a3c0e1461090c578063b52c05fe1461099457600080fd5b806391ddadf4146108ad57806395d89b411461045a578063981b24d01461086e5780639d507b8b146108b357600080fd5b80638bf9d84c116101e45780638bf9d84c146108435780638e539e8c1461086e5780638fbb38ff14610881578063900cf0cf146108a457600080fd5b80637ecebe00146107ea578063834b0b691461080a57806385f2aef21461081d5780638ad4c4471461083057600080fd5b80633d085a37116103105780634d6fb775116102a3578063572b6c0511610272578063572b6c051461072b5780635a4f459a1461076b5780636352211e1461077e57806370a08231146107915780637c728000146107ba57600080fd5b80634d6fb775146106a257806350589793146106b557806354fd4d50146106f45780635594a0451461071857600080fd5b806346c96aac116102df57806346c96aac146106345780634b19becc146106475780634bf5d7e91461066f5780634d01cb661461069957600080fd5b80633d085a37146105cb57806342842e0e146105ee578063430c20811461060157806344acb42a1461061457600080fd5b806318160ddd116103935780632e1a7d4d116103625780632e1a7d4d146105655780632e720f7d14610578578063313ce5671461058b57806333230dc0146105a557806335b0f6bd146105b857600080fd5b806318160ddd1461051057806320606b701461051857806323b872dd1461053f5780632d0485ec1461055257600080fd5b8063095cf5c6116103cf578063095cf5c6146104cc578063095ea7b3146104e15780630ec84dda146104f457806317d70f7c1461050757600080fd5b806301ffc9a714610401578063047fc9aa1461044357806306fdde031461045a578063081812fc1461048b575b600080fd5b61042e61040f366004614281565b6001600160e01b03191660009081526006602052604090205460ff1690565b60405190151581526020015b60405180910390f35b61044c60115481565b60405190815260200161043a565b61047e604051806040016040528060058152602001641d9953919560da1b81525081565b60405161043a91906142ee565b6104b4610499366004614301565b6000908152600b60205260409020546001600160a01b031690565b6040516001600160a01b03909116815260200161043a565b6104df6104da366004614336565b610bb0565b005b6104df6104ef366004614351565b610c34565b6104df61050236600461437b565b610d75565b61044c60075481565b61044c610dd2565b61044c7f8cad95687ba82c2ce50e74f7b754645e5117c3a5bec8151c0726d5857980a86681565b6104df61054d36600461439d565b610de2565b6104df6105603660046143d9565b610dfa565b6104df610573366004614301565b610e63565b6104df610586366004614336565b611117565b610593601281565b60405160ff909116815260200161043a565b6104df6105b336600461441a565b6111ab565b6104df6105c6366004614301565b611211565b61042e6105d9366004614336565b60166020526000908152604090205460ff1681565b6104df6105fc36600461439d565b611480565b61042e61060f366004614351565b61149b565b61062761062236600461437b565b6114b0565b60405161043a9190614451565b6002546104b4906001600160a01b031681565b61065a61065536600461437b565b61152e565b6040805192835260208301919091520161043a565b60408051808201909152600e81526d06d6f64653d74696d657374616d760941b602082015261047e565b61044c60175481565b61044c6106b0366004614490565b6118ab565b6106dd6106c3366004614301565b601b6020526000908152604090205465ffffffffffff1681565b60405165ffffffffffff909116815260200161043a565b61047e604051806040016040528060058152602001640322e302e360dc1b81525081565b6004546104b4906001600160a01b031681565b61042e610739366004614336565b7f00000000000000000000000000000000000000000000000000000000000000006001600160a01b0390811691161490565b6104df6107793660046144c3565b611950565b6104b461078c366004614301565b6119ab565b61044c61079f366004614336565b6001600160a01b03166000908152600a602052604090205490565b6107dd6107c8366004614301565b60086020526000908152604090205460ff1681565b60405161043a91906144fe565b61044c6107f8366004614336565b601c6020526000908152604090205481565b6104df610818366004614526565b6119b6565b6003546104b4906001600160a01b031681565b61062761083e366004614301565b611c90565b61044c610851366004614351565b600e60209081526000928352604080842090915290825290205481565b61044c61087c366004614301565b611d21565b61042e61088f366004614301565b60186020526000908152604090205460ff1681565b61044c60105481565b426106dd565b6104df6108c136600461437b565b611d2c565b6104df6108d436600461441a565b611f00565b61044c6108e7366004614301565b60009081526019602052604090205490565b6104df61090736600461437b565b611fab565b61096d61091a366004614301565b6040805160608082018352600080835260208084018290529284018190529384526012825292829020825193840183528054600f0b84526001810154918401919091526002015460ff1615159082015290565b604080518251600f0b8152602080840151908201529181015115159082015260600161043a565b61044c6109a236600461437b565b611fe7565b6104df6109b53660046145fa565b61200f565b6001546104b4906001600160a01b031681565b6104df612132565b61047e6109e3366004614301565b612184565b6104df6109f636600461437b565b612227565b6104df610a0936600461437b565b612685565b61044c610a1c36600461437b565b6126b7565b61044c610a2f366004614301565b60146020526000908152604090205481565b6104df610a4f366004614301565b6126c3565b61044c7f9947d5709c1682eaa3946b2d84115c9c0d1c946b149d76e69b457458b42ea29e81565b61044c610a89366004614301565b6128f2565b61042e610a9c3660046143d9565b6001600160a01b039182166000908152600c6020908152604080832093909416825291909152205460ff1690565b61044c610ad83660046146a5565b6128fe565b610af0610aeb3660046146da565b61291f565b60405161043a9190815181526020808301516001600160a01b031690820152604080830151908201526060918201519181019190915260800190565b610b4f610b3a366004614301565b601560205260009081526040902054600f0b81565b604051600f9190910b815260200161043a565b6104b47f000000000000000000000000000000000000000000000000000000000000000081565b6104b47f000000000000000000000000000000000000000000000000000000000000000081565b6003546001600160a01b0316610bc46129b2565b6001600160a01b031614610beb57604051633a7cfa5d60e21b815260040160405180910390fd5b6001600160a01b038116610c125760405163d92e233d60e01b815260040160405180910390fd5b600380546001600160a01b0319166001600160a01b0392909216919091179055565b6000610c3e6129b2565b90506000610c4b83612a27565b90506001600160a01b038116610c745760405163d92e233d60e01b815260040160405180910390fd5b836001600160a01b0316816001600160a01b031603610ca65760405163367558c360e01b815260040160405180910390fd5b6000826001600160a01b0316610cbb85612a27565b6001600160a01b038481166000908152600c602090815260408083208985168452909152902054911691909114915060ff16811582610cf8575080155b15610d165760405163390cdd9b60e21b815260040160405180910390fd5b6000858152600b602052604080822080546001600160a01b0319166001600160a01b038a811691821790925591518893918716917f8c5be1e5ebec7d5bd14f71427d1e84f3dd0314c0f7b2291e5b200ac8c7c3b92591a4505050505050565b610d7d612a42565b6001546001600160a01b0316610d916129b2565b6001600160a01b031614610db85760405163385296d560e01b815260040160405180910390fd5b610dc482826000612aa0565b610dce6001600055565b5050565b6000610ddd42612c0c565b905090565b610df5838383610df06129b2565b612c9c565b505050565b6002546001600160a01b0316610e0e6129b2565b6001600160a01b031614610e355760405163c18384c160e01b815260040160405180910390fd5b600280546001600160a01b039384166001600160a01b03199182161790915560018054929093169116179055565b610e6b612a42565b6000610e756129b2565b9050610e818183612dc8565b610e9e5760405163390cdd9b60e21b815260040160405180910390fd5b60008281526018602052604090205460ff1615610ece57604051637c9a1cf960e01b815260040160405180910390fd5b60008281526008602052604081205460ff166001811115610ef157610ef16144e8565b14610f0f576040516317a66f3760e01b815260040160405180910390fd5b60008281526012602090815260409182902082516060810184528154600f0b81526001820154928101929092526002015460ff161580159282019290925290610f6b576040516334d10f9560e11b815260040160405180910390fd5b8060200151421015610f905760405163342ad40160e11b815260040160405180910390fd5b6000610fa28260000151600f0b612e32565b9050610fad84612e5e565b6040805160608101825260008082526020808301828152838501838152898452601290925293909120915182546001600160801b0319166001600160801b039091161782559151600182015590516002909101805460ff191691151591909117905560115461101c8282614720565b60115560408051606081018252600080825260208201819052918101919091526110499086908590612f0e565b61107d6001600160a01b037f00000000000000000000000000000000000000000000000000000000000000001685846136df565b6040805183815242602082015286916001600160a01b038716917f02f25270a4d87bea75db541cdfe559334a275b4a233520ed6c0a2429667cca94910160405180910390a37f5e2aa66efd74cce82b21852e317e5490d9ecc9e6bb953ae24d90851258cc2f5c816110ee8482614720565b6040805192835260208301919091520160405180910390a1505050506111146001600055565b50565b6003546001600160a01b031661112b6129b2565b6001600160a01b03161461115257604051633a7cfa5d60e21b815260040160405180910390fd5b600480546001600160a01b0319166001600160a01b038316179055604080516000815260001960208201527f6bd5c950a8d8df17f772f5af37cb3655737899cbf903264b9795592da439661c910160405180910390a150565b6003546001600160a01b03166111bf6129b2565b6001600160a01b0316146111e657604051633a7cfa5d60e21b815260040160405180910390fd5b6001600160a01b03919091166000908152601660205260409020805460ff1916911515919091179055565b600061121b6129b2565b90506112278183612dc8565b6112445760405163390cdd9b60e21b815260040160405180910390fd5b60008281526008602052604081205460ff166001811115611267576112676144e8565b14611285576040516317a66f3760e01b815260040160405180910390fd5b60008281526018602052604090205460ff16156112b557604051637c9a1cf960e01b815260040160405180910390fd5b60008281526012602090815260409182902082516060810184528154600f0b81526001820154928101929092526002015460ff1615159181018290529061130f57604051632188f8ab60e01b815260040160405180910390fd5b60006113218260000151600f0b612e32565b905080601760008282546113359190614720565b9091555062093a8090508061134e630784ce0042614733565b611358919061475c565b6113629190614770565b602083015260006040830181905261137b908590613742565b60008481526012602090815260409182902082516060810184528154600f0b81526001820154928101929092526002015460ff161515918101919091526113c490859084612f0e565b600084815260126020908152604091829020845181546001600160801b0319166001600160801b03909116178155848201516001820155848301516002909101805460ff19169115159190911790558151838152429181019190915285916001600160a01b038616917f668d293c0a181c1f163fd0d3c757239a9c17bd26c5e483150e374455433b27fa91015b60405180910390a36040518481526000805160206149fe8339815191529060200160405180910390a150505050565b610df58383836040518060200160405280600081525061200f565b60006114a78383612dc8565b90505b92915050565b6114b8614236565b600083815260136020526040902082633b9aca0081106114da576114da614787565b6040805160a081018252600492909202929092018054600f81810b8452600160801b909104900b60208301526001810154928201929092526002820154606082015260039091015460808201529392505050565b600080611539612a42565b60006115436129b2565b9050600061155086612a27565b90506001600160a01b03811661157957604051632c2151ef60e11b815260040160405180910390fd5b6001600160a01b03811660009081526016602052604090205460ff161580156115cd57506000805260166020527f0263c2b778d062355049effc2dece97bc6547ff8a88a3258daa512061c2153dd5460ff16155b156115eb57604051633df16fd960e21b815260040160405180910390fd5b60008681526008602052604081205460ff16600181111561160e5761160e6144e8565b1461162c576040516317a66f3760e01b815260040160405180910390fd5b60008681526018602052604090205460ff161561165c57604051637c9a1cf960e01b815260040160405180910390fd5b6116668287612dc8565b6116835760405163390cdd9b60e21b815260040160405180910390fd5b60008681526012602090815260409182902082516060810184528154600f0b8152600182015492810183905260029091015460ff1615159281019290925242108015906116d257508060400151155b156116f0576040516307b7d7dd60e51b815260040160405180910390fd5b60006116fb876138aa565b905080600f0b60000361172157604051631f2a200560e01b815260040160405180910390fd5b80600f0b8260000151600f0b1361174b57604051636b2f218360e01b815260040160405180910390fd5b61175488612e5e565b6040805160608082018352600080835260208084018281528486018381528e845260128352868420955186546001600160801b0319166001600160801b0390911617865590516001860155516002909401805460ff19169415159490941790935583519182018452808252918101829052918201526117d69089908490612f0e565b80826000018181516117e8919061479d565b600f0b9052506117f883836138d8565b600f82900b8352955061180b83836138d8565b600087815260126020526040902054909550859087908a907f8303de8187a6102fdc3fe20c756dddd68df0ae027b77e2391c19a855e0821f3390889061185390600f0b612e32565b61185f87600f0b612e32565b6020808a0151604080516001600160a01b03909616865291850193909352830152606082015242608082015260a00160405180910390a4505050506118a46001600055565b9250929050565b6040516332b53f5360e11b8152601b6004820152601a60248201526001600160a01b0384166044820152606481018390526084810182905260009073__$de10195acff121a4537a1650db15778b77$__9063656a7ea69060a401602060405180830381865af4158015611922573d6000803e3d6000fd5b505050506040513d601f19601f8201168201806040525081019061194691906147ca565b90505b9392505050565b6002546001600160a01b03166119646129b2565b6001600160a01b03161461198b5760405163c18384c160e01b815260040160405180910390fd5b600091825260186020526040909120805460ff1916911515919091179055565b60006114aa82612a27565b7f7fffffffffffffffffffffffffffffff5d576e7357a4501ddfe92f46681b20a08111156119f7576040516317e97eb760e31b815260040160405180910390fd5b6040805180820182526005808252641d9953919560da1b60209283015282518084018452908152640322e302e360dc1b9082015281517f8cad95687ba82c2ce50e74f7b754645e5117c3a5bec8151c0726d5857980a866818301527fc792e9874e7b42c234d1e8448cec020a0f065019c8cd6f7ccdb65b8c110157e9818401527fb4bcb154e38601c389396fa918314da42d4626f13ef6d0ceb07e5f5d26b2fbc360608201524660808201523060a0808301919091528351808303909101815260c0820184528051908301207f9947d5709c1682eaa3946b2d84115c9c0d1c946b149d76e69b457458b42ea29e60e083015261010082018b905261012082018a905261014082018990526101608083018990528451808403909101815261018083019094528351939092019290922061190160f01b6101a08401526101a283018290526101c2830181905290916000906101e20160408051601f198184030181528282528051602091820120600080855291840180845281905260ff8a169284019290925260608301889052608083018790529092509060019060a0016020604051602081039080840390855afa158015611bb6573d6000803e3d6000fd5b505050602060405103519050611bcc818c612dc8565b611be95760405163390cdd9b60e21b815260040160405180910390fd5b6001600160a01b038116611c1057604051638baa579f60e01b815260040160405180910390fd5b6001600160a01b0381166000908152601c60205260408120805491611c34836147e3565b919050558914611c5757604051633ab3447f60e11b815260040160405180910390fd5b87421115611c7857604051630819bdcd60e01b815260040160405180910390fd5b611c828b8b613742565b505050505b50505050505050565b611cc86040518060a001604052806000600f0b81526020016000600f0b81526020016000815260200160008152602001600081525090565b50600090815260056020908152604091829020825160a0810184528154600f81810b8352600160801b909104900b9281019290925260018101549282019290925260028201546060820152600390910154608082015290565b60006114aa82612c0c565b611d34612a42565b611d45611d3f6129b2565b83612dc8565b611d625760405163390cdd9b60e21b815260040160405180910390fd5b60008281526008602052604081205460ff166001811115611d8557611d856144e8565b14611da3576040516317a66f3760e01b815260040160405180910390fd5b60008281526012602090815260409182902082516060810184528154600f0b81526001820154928101929092526002015460ff161580159282019290925290611dff576040516334d10f9560e11b815260040160405180910390fd5b600062093a8080611e108542614733565b611e1a919061475c565b611e249190614770565b905042826020015111611e4a576040516307b7d7dd60e51b815260040160405180910390fd5b60008260000151600f0b13611e725760405163f90e998d60e01b815260040160405180910390fd5b81602001518111611e9657604051638e6b5b6760e01b815260040160405180910390fd5b611ea4630784ce0042614733565b811115611ec45760405163f761f1cd60e01b815260040160405180910390fd5b611ed384600083856003613973565b6040518481526000805160206149fe8339815191529060200160405180910390a15050610dce6001600055565b6000611f0a6129b2565b9050806001600160a01b0316836001600160a01b031603611f3e5760405163367558c360e01b815260040160405180910390fd5b6001600160a01b038181166000818152600c6020908152604080832094881680845294825291829020805460ff191687151590811790915591519182527f17307eab39ab6107e8899845ad3d59bd9653f200f220920489ca2b5937696c31910160405180910390a3505050565b611fb3612a42565b611fbe611d3f6129b2565b611fdb5760405163390cdd9b60e21b815260040160405180910390fd5b610dc482826002612aa0565b6000611ff1612a42565b6120038383611ffe6129b2565b613b38565b90506114aa6001600055565b60006120196129b2565b905061202785858584612c9c565b833b1561212b57604051630a85bd0160e11b81526001600160a01b0385169063150b7a02906120609084908990889088906004016147fc565b6020604051808303816000875af192505050801561209b575060408051601f3d908101601f1916820190925261209891810190614839565b60015b6120f8573d8080156120c9576040519150601f19603f3d011682016040523d82523d6000602084013e6120ce565b606091505b5080516000036120f057604051626b5e2960e61b815260040160405180910390fd5b805181602001fd5b6001600160e01b03198116630a85bd0160e11b146121295760405163279929b160e21b815260040160405180910390fd5b505b5050505050565b61213a612a42565b604080516060808201835260008083526020808401829052838501829052845192830185528183528201819052928101839052612178929190612f0e565b6121826001600055565b565b6060600061219183612a27565b6001600160a01b0316036121b857604051634a1850bf60e11b815260040160405180910390fd5b6004805460405163c87b56dd60e01b81529182018490526001600160a01b03169063c87b56dd90602401600060405180830381865afa1580156121ff573d6000803e3d6000fd5b505050506040513d6000823e601f3d908101601f191682016040526114aa9190810190614856565b61222f612a42565b60006122396129b2565b60008481526018602052604090205490915060ff161561226c57604051637c9a1cf960e01b815260040160405180910390fd5b60008381526008602052604081205460ff16600181111561228f5761228f6144e8565b146122ad576040516317a66f3760e01b815260040160405180910390fd5b60008281526008602052604081205460ff1660018111156122d0576122d06144e8565b146122ee576040516317a66f3760e01b815260040160405180910390fd5b81830361230e576040516349da877960e11b815260040160405180910390fd5b6123188184612dc8565b6123355760405163390cdd9b60e21b815260040160405180910390fd5b61233f8183612dc8565b61235c5760405163390cdd9b60e21b815260040160405180910390fd5b60008281526012602090815260409182902082516060810184528154600f0b8152600182015492810183905260029091015460ff1615159281019290925242108015906123ab57508060400151155b156123c9576040516307b7d7dd60e51b815260040160405180910390fd5b60008481526012602090815260409182902082516060810184528154600f0b81526001820154928101929092526002015460ff161580159282019290925290612425576040516334d10f9560e11b815260040160405180910390fd5b6000826020015182602001511015612441578260200151612447565b81602001515b905061245286612e5e565b6040805160608082018352600080835260208084018281528486018381528c845260128352868420955186546001600160801b0319166001600160801b0390911617865590516001860155516002909401805460ff19169415159490941790935583519182018452808252918101829052918201526124d49087908490612f0e565b6040805160608101825260008082526020820181905291810191909152825184516124ff91906148c4565b600f0b81526040808501511580159183019190915261254257825161252690600f0b612e32565b601760008282546125379190614733565b9091555061254a9050565b602081018290525b6000868152601960205260409020548351612573919061256c90600f0b612e32565b6001613c4a565b61257e868583612f0e565b600086815260126020908152604091829020835181546001600160801b0319166001600160801b03909116178155908301516001820155908201516002909101805460ff19169115159190911790558251869088906001600160a01b038816907f986e3c958e3bdf1f58c2150357fc94624dd4e77b08f9802d8e2e885fa0d6a1989061260c90600f0b612e32565b885161261a90600f0b612e32565b865161262890600f0b612e32565b6020808901516040805195865291850193909352830152606082015242608082015260a00160405180910390a46040518681526000805160206149fe8339815191529060200160405180910390a15050505050610dce6001600055565b612690611d3f6129b2565b6126ad5760405163390cdd9b60e21b815260040160405180910390fd5b610dce8282613742565b60006114a78383613cc7565b60006126cd6129b2565b90506126d98183612dc8565b6126f65760405163390cdd9b60e21b815260040160405180910390fd5b60008281526008602052604081205460ff166001811115612719576127196144e8565b14612737576040516317a66f3760e01b815260040160405180910390fd5b60008281526012602090815260409182902082516060810184528154600f0b81526001820154928101929092526002015460ff161580159282019290925290612793576040516334d10f9560e11b815260040160405180910390fd5b428160200151116127b7576040516307b7d7dd60e51b815260040160405180910390fd5b60008160000151600f0b136127df5760405163f90e998d60e01b815260040160405180910390fd5b60006127f18260000151600f0b612e32565b905080601760008282546128059190614733565b90915550506000602080840182905260016040808601829052878452601283529283902083516060810185528154600f0b8152918101549282019290925260029091015460ff1615159181019190915261286190859084612f0e565b600084815260126020908152604091829020845181546001600160801b0319166001600160801b03909116178155848201516001820155848301516002909101805460ff19169115159190911790558151838152429181019190915285916001600160a01b038616917f793cb7a30a4bb8669ec607dfcbdc93f5a3e9d282f38191fddab43ccaf79efb809101611451565b60006114aa8242613cc7565b6000612908612a42565b612913848484613b38565b90506119496001600055565b61295360405180608001604052806000815260200160006001600160a01b0316815260200160008152602001600081525090565b506000918252601a6020908152604080842065ffffffffffff9390931684529181529181902081516080810183528154815260018201546001600160a01b03169381019390935260028101549183019190915260030154606082015290565b6000366014336001600160a01b037f0000000000000000000000000000000000000000000000000000000000000000161480156129ef5750808210155b15612a1f57600036612a018385614720565b612a0c9282906148f1565b612a159161491b565b60601c9250505090565b339250505090565b6000908152600960205260409020546001600160a01b031690565b600260005403612a995760405162461bcd60e51b815260206004820152601f60248201527f5265656e7472616e637947756172643a207265656e7472616e742063616c6c0060448201526064015b60405180910390fd5b6002600055565b60008381526008602052604081205460ff1690816001811115612ac557612ac56144e8565b14612ae3576040516317a66f3760e01b815260040160405180910390fd5b600084815260126020908152604080832081516060810183528154600f0b81526001820154938101939093526002015460ff1615159082015290849003612b3d57604051631f2a200560e01b815260040160405180910390fd5b60008160000151600f0b13612b655760405163f90e998d60e01b815260040160405180910390fd5b42816020015111158015612b7b57508060400151155b15612b99576040516307b7d7dd60e51b815260040160405180910390fd5b806040015115612bbb578360176000828254612bb59190614733565b90915550505b600085815260196020526040902054612bd690856001613c4a565b612be4858560008487613973565b6040518581526000805160206149fe8339815191529060200160405180910390a15050505050565b601054604051637259b01960e01b8152601560048201526005602482015260448101919091526064810182905260009073__$4f7d551c3e05ae6e9d854e11e903422268$__90637259b01990608401602060405180830381865af4158015612c78573d6000803e3d6000fd5b505050506040513d601f19601f820116820180604052508101906114aa91906147ca565b60008281526008602052604081205460ff166001811115612cbf57612cbf6144e8565b14612cdd576040516317a66f3760e01b815260040160405180910390fd5b612ce78183612dc8565b612d045760405163390cdd9b60e21b815260040160405180910390fd5b836001600160a01b0316612d1783612a27565b6001600160a01b031614612d3e576040516330cd747160e01b815260040160405180910390fd5b6000828152600b6020526040902080546001600160a01b0319169055612d648483613d53565b612d7082600085613dd4565b612d7a8383613e3e565b6000828152600d60205260408082204390555183916001600160a01b0380871692908816917fddf252ad1be2c89b69c2b068fc378daa952ba7f163c4a11628f55a4df523b3ef91a450505050565b600080612dd483612a27565b6000848152600b60209081526040808320546001600160a01b03808616808652600c8552838620828c1680885295529290942054949550908214939216149060ff168280612e1f5750815b80612e275750805b979650505050505050565b60008082600f0b1215612e575760405162406f5d60e21b815260040160405180910390fd5b50600f0b90565b6000612e686129b2565b9050612e748183612dc8565b612e915760405163390cdd9b60e21b815260040160405180910390fd5b6000612e9c83612a27565b6000848152600b6020526040812080546001600160a01b0319169055909150612ec790849080613dd4565b612ed18184613d53565b60405183906000906001600160a01b038416907fddf252ad1be2c89b69c2b068fc378daa952ba7f163c4a11628f55a4df523b3ef908390a4505050565b612f16614236565b612f1e614236565b60105460009081908715613071578560400151612f3c576000612f4a565b8551612f4a90600f0b612e32565b6080850152602087015142108015612f69575060008760000151600f0b135b15612fb7578651612f7f90630784ce0090614950565b600f0b602080870191909152870151612fa290612f9d904290614720565b6138aa565b8560200151612fb1919061498e565b600f0b85525b428660200151118015612fd1575060008660000151600f0b135b1561301a578551612fe790630784ce0090614950565b600f0b60208086019190915286015161300590612f9d904290614720565b8460200151613014919061498e565b600f0b84525b602080880151600090815260158252604090205490870151600f9190910b93501561307157866020015186602001510361305657829150613071565b602080870151600090815260159091526040902054600f0b91505b6040805160a0810182526000808252602082018190524292820192909252436060820152608081019190915281156130fa5750600081815260056020908152604091829020825160a0810184528154600f81810b8352600160801b909104900b928101929092526001810154928201929092526002820154606082015260039091015460808201525b60008160400151905060006040518060a001604052808460000151600f0b81526020018460200151600f0b8152602001846040015181526020018460600151815260200184608001518152509050600083604001514211156131935760408401516131659042614720565b60608501516131749043614720565b61318690670de0b6b3a7640000614770565b613190919061475c565b90505b600062093a806131a3818661475c565b6131ad9190614770565b905060005b60ff811015613334576131c862093a8083614733565b91506000428311156131dc574292506131f0565b50600082815260156020526040902054600f0b5b6131fd612f9d8785614720565b876020015161320c919061498e565b8751889061321b90839061479d565b600f0b9052506020870180518291906132359083906148c4565b600f90810b90915288516000910b1215905061325057600087525b60008760200151600f0b121561326857600060208801525b60408088018490528501519295508592670de0b6b3a76400009061328c9085614720565b6132969086614770565b6132a0919061475c565b85606001516132af9190614733565b60608801526132bf600189614733565b97504283036132d45750436060870152613334565b6000888152600560209081526040918290208951918a01516001600160801b03908116600160801b0292169190911781559088015160018201556060880151600282015560808801516003909101555061332d816147e3565b90506131b2565b50508b156133c35788602001518860200151613350919061479d565b8460200181815161336191906148c4565b600f0b90525088518851613375919061479d565b845185906133849083906148c4565b600f90810b90915260208601516000910b121590506133a557600060208501525b60008460000151600f0b12156133ba57600084525b60175460808501525b846001141580156133f3575042600560006133df600189614720565b815260200190815260200160002060010154145b1561345d578360056000613408600189614720565b815260208082019290925260409081016000208351928401516001600160801b03908116600160801b0293169290921782558201516001820155606082015160028201556080909101516003909101556134b2565b60108590556000858152600560209081526040918290208651918701516001600160801b03908116600160801b0292169190911781559085015160018201556060850151600282015560808501516003909101555b8b156136d157428b6020015111156135245760208901516134d390886148c4565b96508a602001518a60200151036134f65760208801516134f3908861479d565b96505b60208b810151600090815260159091526040902080546001600160801b0319166001600160801b0389161790555b428a60200151111561357f578a602001518a60200151111561357f57602088015161354f908761479d565b60208b810151600090815260159091526040902080546001600160801b0319166001600160801b03831617905595505b426040808a01919091524360608a015260008d81526014602052205480158015906135d3575060008d8152601360205260409020429082633b9aca0081106135c9576135c9614787565b6004020160010154145b156136495760008d8152601360205260409020899082633b9aca0081106135fc576135fc614787565b825160208401516001600160801b03908116600160801b029116176004919091029190910190815560408201516001820155606082015160028201556080909101516003909101556136cf565b613652816147e3565b60008e815260146020908152604080832084905560139091529020909150899082633b9aca00811061368657613686614787565b825160208401516001600160801b03908116600160801b029116176004919091029190910190815560408201516001820155606082015160028201556080909101516003909101555b505b505050505050505050505050565b6040516001600160a01b038316602482015260448101829052610df590849063a9059cbb60e01b906064015b60408051601f198184030181529190526020810180516001600160e01b03166001600160e01b031990931692909217909152613ed0565b60008281526012602090815260409182902082516060810184528154600f0b81526001820154928101929092526002015460ff1615159181018290529061379c57604051632188f8ab60e01b815260040160405180910390fd5b81158015906137bc575060006137b183612a27565b6001600160a01b0316145b156137da57604051634a1850bf60e11b815260040160405180910390fd5b6000838152600d6020526040902054439003613809576040516342d6fce760e01b815260040160405180910390fd5b82820361381557600091505b6000838152601960205260409020548281036138315750505050565b60006138438360000151600f0b612e32565b9050613858858561385388612a27565b613dd4565b61386484826001613c4a565b838261386e6129b2565b6001600160a01b03167ff1aa2a9e40138176a3ee6099df056f5c175f8511a0d8b8275d94d1ea5de4677360405160405180910390a45050505050565b600060016001607f1b038211156138d4576040516393dafdf160e01b815260040160405180910390fd5b5090565b60006007600081546138e9906147e3565b91829055506000818152601260209081526040808320865181546001600160801b0319166001600160801b03909116178155868301516001820155868201516002909101805460ff1916911515919091179055805160608101825283815291820183905281019190915290915061396290829084612f0e565b61396c8382613fa5565b5092915050565b6011546139808582614733565b6011556040805160608101825260008082526020808301828152838501928352875191880151948801511515909252929052600f9190910b81526139c3866138aa565b815182906139d29083906148c4565b600f0b90525084156139e657602081018590525b600087815260126020908152604091829020835181546001600160801b0319166001600160801b03909116178155908301516001820155908201516002909101805460ff1916911515919091179055613a40878583612f0e565b6000613a4a6129b2565b90508615613a8757613a876001600160a01b037f00000000000000000000000000000000000000000000000000000000000000001682308a614014565b836003811115613a9957613a996144e8565b602083810151604080518b8152928301919091524282820152518a916001600160a01b038516917f8835c22a0c751188de86681e15904223c054bedd5c68ec8858945b78312902739181900360600190a47f5e2aa66efd74cce82b21852e317e5490d9ecc9e6bb953ae24d90851258cc2f5c83613b168982614733565b6040805192835260208301919091520160405180910390a15050505050505050565b60008062093a8080613b4a8642614733565b613b54919061475c565b613b5e9190614770565b905084600003613b8157604051631f2a200560e01b815260040160405180910390fd5b428111613ba157604051638e6b5b6760e01b815260040160405180910390fd5b613baf630784ce0042614733565b811115613bcf5760405163f761f1cd60e01b815260040160405180910390fd5b6000600760008154613be0906147e3565b91829055509050613bf18482613fa5565b5060008181526012602090815260409182902082516060810184528154600f0b81526001808301549382019390935260029091015460ff16151592810192909252613c4191839189918691613973565b95945050505050565b6040516375f199b960e11b8152601b6004820152601a60248201526044810184905260648101839052811515608482015273__$de10195acff121a4537a1650db15778b77$__9063ebe333729060a4015b60006040518083038186803b158015613cb357600080fd5b505af4158015611c87573d6000803e3d6000fd5b604051637b29b3d160e01b81526014600482015260136024820152604481018390526064810182905260009073__$4f7d551c3e05ae6e9d854e11e903422268$__90637b29b3d190608401602060405180830381865af4158015613d2f573d6000803e3d6000fd5b505050506040513d601f19601f820116820180604052508101906114a791906147ca565b816001600160a01b0316613d6682612a27565b6001600160a01b031614613d7c57613d7c6149ae565b600081815260096020526040902080546001600160a01b0319169055613da28282614052565b6001600160a01b0382166000908152600a60205260408120805460019290613dcb908490614720565b90915550505050565b60405163690f66bf60e01b815260126004820152601b6024820152601a6044820152601960648201526084810184905260a481018390526001600160a01b03821660c482015273__$de10195acff121a4537a1650db15778b77$__9063690f66bf9060e401613c9b565b6000613e4982612a27565b6001600160a01b031614613e5f57613e5f6149ae565b600081815260096020908152604080832080546001600160a01b0319166001600160a01b038716908117909155808452600a8084528285208054600e86528487208188528652848720889055878752600f865293862093909355908452909152805460019290613dcb908490614733565b6000613f25826040518060400160405280602081526020017f5361666545524332303a206c6f772d6c6576656c2063616c6c206661696c6564815250856001600160a01b03166141119092919063ffffffff16565b9050805160001480613f46575080806020019051810190613f4691906149c4565b610df55760405162461bcd60e51b815260206004820152602a60248201527f5361666545524332303a204552433230206f7065726174696f6e20646964206e6044820152691bdd081cdd58d8d9595960b21b6064820152608401612a90565b60006001600160a01b038316613fbd57613fbd6149ae565b613fc78383613e3e565b613fd382600085613dd4565b60405182906001600160a01b038516906000907fddf252ad1be2c89b69c2b068fc378daa952ba7f163c4a11628f55a4df523b3ef908290a450600192915050565b6040516001600160a01b038085166024830152831660448201526064810182905261404c9085906323b872dd60e01b9060840161370b565b50505050565b6001600160a01b0382166000908152600a602052604081205461407790600190614720565b6000838152600f60205260409020549091508082036140c6576001600160a01b0384166000908152600e602090815260408083208584528252808320839055858352600f90915281205561404c565b6001600160a01b03939093166000908152600e6020908152604080832093835292815282822080548684528484208190558352600f9091528282209490945592839055908252812055565b6060611946848460008585600080866001600160a01b0316858760405161413891906149e1565b60006040518083038185875af1925050503d8060008114614175576040519150601f19603f3d011682016040523d82523d6000602084013e61417a565b606091505b509150915061418b87838387614198565b925050505b949350505050565b60608315614207578251600003614200576001600160a01b0385163b6142005760405162461bcd60e51b815260206004820152601d60248201527f416464726573733a2063616c6c20746f206e6f6e2d636f6e74726163740000006044820152606401612a90565b5081614190565b614190838381511561421c5781518083602001fd5b8060405162461bcd60e51b8152600401612a9091906142ee565b6040518060a001604052806000600f0b81526020016000600f0b81526020016000815260200160008152602001600081525090565b6001600160e01b03198116811461111457600080fd5b60006020828403121561429357600080fd5b81356119498161426b565b60005b838110156142b95781810151838201526020016142a1565b50506000910152565b600081518084526142da81602086016020860161429e565b601f01601f19169290920160200192915050565b6020815260006114a760208301846142c2565b60006020828403121561431357600080fd5b5035919050565b80356001600160a01b038116811461433157600080fd5b919050565b60006020828403121561434857600080fd5b6114a78261431a565b6000806040838503121561436457600080fd5b61436d8361431a565b946020939093013593505050565b6000806040838503121561438e57600080fd5b50508035926020909101359150565b6000806000606084860312156143b257600080fd5b6143bb8461431a565b92506143c96020850161431a565b9150604084013590509250925092565b600080604083850312156143ec57600080fd5b6143f58361431a565b91506144036020840161431a565b90509250929050565b801515811461111457600080fd5b6000806040838503121561442d57600080fd5b6144368361431a565b915060208301356144468161440c565b809150509250929050565b60a081016114aa82848051600f0b82526020810151600f0b60208301526040810151604083015260608101516060830152608081015160808301525050565b6000806000606084860312156144a557600080fd5b6144ae8461431a565b95602085013595506040909401359392505050565b600080604083850312156144d657600080fd5b8235915060208301356144468161440c565b634e487b7160e01b600052602160045260246000fd5b602081016002831061452057634e487b7160e01b600052602160045260246000fd5b91905290565b600080600080600080600060e0888a03121561454157600080fd5b87359650602088013595506040880135945060608801359350608088013560ff8116811461456e57600080fd5b9699959850939692959460a0840135945060c09093013592915050565b634e487b7160e01b600052604160045260246000fd5b604051601f8201601f1916810167ffffffffffffffff811182821017156145ca576145ca61458b565b604052919050565b600067ffffffffffffffff8211156145ec576145ec61458b565b50601f01601f191660200190565b6000806000806080858703121561461057600080fd5b6146198561431a565b93506146276020860161431a565b925060408501359150606085013567ffffffffffffffff81111561464a57600080fd5b8501601f8101871361465b57600080fd5b803561466e614669826145d2565b6145a1565b81815288602083850101111561468357600080fd5b8160208401602083013760006020838301015280935050505092959194509250565b6000806000606084860312156146ba57600080fd5b83359250602084013591506146d16040850161431a565b90509250925092565b600080604083850312156146ed57600080fd5b82359150602083013565ffffffffffff8116811461444657600080fd5b634e487b7160e01b600052601160045260246000fd5b818103818111156114aa576114aa61470a565b808201808211156114aa576114aa61470a565b634e487b7160e01b600052601260045260246000fd5b60008261476b5761476b614746565b500490565b80820281158282048414176114aa576114aa61470a565b634e487b7160e01b600052603260045260246000fd5b600f82810b9082900b0360016001607f1b0319811260016001607f1b03821317156114aa576114aa61470a565b6000602082840312156147dc57600080fd5b5051919050565b6000600182016147f5576147f561470a565b5060010190565b6001600160a01b038581168252841660208201526040810183905260806060820181905260009061482f908301846142c2565b9695505050505050565b60006020828403121561484b57600080fd5b81516119498161426b565b60006020828403121561486857600080fd5b815167ffffffffffffffff81111561487f57600080fd5b8201601f8101841361489057600080fd5b805161489e614669826145d2565b8181528560208385010111156148b357600080fd5b613c4182602083016020860161429e565b600f81810b9083900b0160016001607f1b03811360016001607f1b0319821217156114aa576114aa61470a565b6000808585111561490157600080fd5b8386111561490e57600080fd5b5050820193919092039150565b6bffffffffffffffffffffffff1981358181169160148510156149485780818660140360031b1b83161692505b505092915050565b600081600f0b83600f0b8061496757614967614746565b60016001607f1b03198214600019821416156149855761498561470a565b90059392505050565b600082600f0b82600f0b0280600f0b915080821461396c5761396c61470a565b634e487b7160e01b600052600160045260246000fd5b6000602082840312156149d657600080fd5b81516119498161440c565b600082516149f381846020870161429e565b919091019291505056fef8e1a15aba9398e019f0b49df1a4fde98ee17ae345cb5f6b5e2c27f5033e8ce7a2646970667358221220259a2106f382baa60aae7303334661d961e2f831389d9219997b6ac6f5b9acb764736f6c63430008130033ddf252ad1be2c89b69c2b068fc378daa952ba7f163c4a11628f55a4df523b3ef",
    "linkReferences": {
      "src/escrow/libraries/BalanceLogicLibrary.sol": {
        "BalanceLogicLibrary": [
          {
            "start": 12249,
            "length": 20
          },
          {
            "start": 16528,
            "length": 20
          }
        ]
      },
      "src/escrow/libraries/DelegationLogicLibrary.sol": {
        "DelegationLogicLibrary": [
          {
            "start": 7299,
            "length": 20
          },
          {
            "start": 16408,
            "length": 20
          },
          {
            "start": 16823,
            "length": 20
          }
        ]
      }
    }
  },
  "methodIdentifiers": {
    "CLOCK_MODE()": "4bf5d7e9",
    "DELEGATION_TYPEHASH()": "e7a324dc",
    "DOMAIN_TYPEHASH()": "20606b70",
    "approve(address,uint256)": "095ea7b3",
    "artProxy()": "5594a045",
    "balanceOf(address)": "70a08231",
    "balanceOfNFT(uint256)": "e7e242d4",
    "balanceOfNFTAt(uint256,uint256)": "e0514aba",
    "canSplit(address)": "3d085a37",
    "checkpoint()": "c2c4c5c1",
    "checkpoints(uint256,uint48)": "f04cb3a8",
    "clock()": "91ddadf4",
    "createLock(uint256,uint256)": "b52c05fe",
    "createLockFor(uint256,uint256,address)": "ec32e6df",
    "decimals()": "313ce567",
    "delegate(uint256,uint256)": "d9a34952",
    "delegateBySig(uint256,uint256,uint256,uint256,uint8,bytes32,bytes32)": "834b0b69",
    "delegates(uint256)": "b1548afc",
    "depositFor(uint256,uint256)": "0ec84dda",
    "distributor()": "bfe10928",
    "epoch()": "900cf0cf",
    "escrowType(uint256)": "7c728000",
    "forwarder()": "f645d4f9",
    "getApproved(uint256)": "081812fc",
    "getPastTotalSupply(uint256)": "8e539e8c",
    "getPastVotes(address,uint256,uint256)": "4d6fb775",
    "increaseAmount(uint256,uint256)": "b2383e55",
    "increaseUnlockTime(uint256,uint256)": "9d507b8b",
    "isApprovedForAll(address,address)": "e985e9c5",
    "isApprovedOrOwner(address,uint256)": "430c2081",
    "isTrustedForwarder(address)": "572b6c05",
    "lockPermanent(uint256)": "e75b1c2e",
    "locked(uint256)": "b45a3c0e",
    "merge(uint256,uint256)": "d1c2babb",
    "name()": "06fdde03",
    "nonces(address)": "7ecebe00",
    "numCheckpoints(uint256)": "50589793",
    "ownerOf(uint256)": "6352211e",
    "ownerToNFTokenIdList(address,uint256)": "8bf9d84c",
    "permanentLockBalance()": "4d01cb66",
    "pointHistory(uint256)": "8ad4c447",
    "safeTransferFrom(address,address,uint256)": "42842e0e",
    "safeTransferFrom(address,address,uint256,bytes)": "b88d4fde",
    "setApprovalForAll(address,bool)": "a22cb465",
    "setArtProxy(address)": "2e720f7d",
    "setTeam(address)": "095cf5c6",
    "setVoterAndDistributor(address,address)": "2d0485ec",
    "slopeChanges(uint256)": "f52a36f7",
    "split(uint256,uint256)": "4b19becc",
    "supply()": "047fc9aa",
    "supportsInterface(bytes4)": "01ffc9a7",
    "symbol()": "95d89b41",
    "team()": "85f2aef2",
    "toggleSplit(address,bool)": "33230dc0",
    "token()": "fc0c546a",
    "tokenId()": "17d70f7c",
    "tokenURI(uint256)": "c87b56dd",
    "totalSupply()": "18160ddd",
    "totalSupplyAt(uint256)": "981b24d0",
    "transferFrom(address,address,uint256)": "23b872dd",
    "unlockPermanent(uint256)": "35b0f6bd",
    "userPointEpoch(uint256)": "e58f5947",
    "userPointHistory(uint256,uint256)": "44acb42a",
    "version()": "54fd4d50",
    "voted(uint256)": "8fbb38ff",
    "voter()": "46c96aac",
    "voting(uint256,bool)": "5a4f459a",
    "withdraw(uint256)": "2e1a7d4d"
  },
  "id": 65
}